F270200717  213056    NN1702FS  882 091015707801    000000201707080000050436100373964000000487UPTD RPH KOTA SOLOK                1000000018dDWARD RASYID, S.E.                CT-SEFS-A01 Escass Steer                  BA 8187 WN    Cattle NTF        Sales          013000000002PT NUSANTARA TROPICAL FARM         
F270200887  213123    NN1702FS  842 000025387868    000000201707080000058836100373964000000487UPTD RPH KOTA SOLOK                1000000018dDWARD RASYID, S.E.                CT-SEFS-A01 Escass Steer                  BA 8187 WN    Cattle NTF        Sales          013000000002PT NUSANTARA TROPICAL FARM         
F270200892  213129    NN1702FS  882 000042587119    000000201707080000047636100373964000000487UPTD RPH KOTA SOLOK                1000000018dDWARD RASYID, S.E.                CT-SEFS-A01 Escass Steer                  BA 8187 WN    Cattle NTF        Sales          013000000002PT NUSANTARA TROPICAL FARM         
F270200920  213157    NN1702FS  842 000024021017    000000201707080000050436100373964000000487UPTD RPH KOTA SOLOK                1000000018dDWARD RASYID, S.E.                CT-SEFS-A01 Escass Steer                  BA 8187 WN    Cattle NTF        Sales          013000000002PT NUSANTARA TROPICAL FARM         
F270201299  213228    NN1702FS  800 116001084409    000000201707080000050236100373964000000487UPTD RPH KOTA SOLOK                1000000018dDWARD RASYID, S.E.                CT-SEFS-A01 Escass Steer                  BA 8187 WN    Cattle NTF        Sales          013000000002PT NUSANTARA TROPICAL FARM         
F270201302  213231    NN1702FS  882 123473223871    000000201707080000048536100373964000000487UPTD RPH KOTA SOLOK                1000000018dDWARD RASYID, S.E.                CT-SEFS-A01 Escass Steer                  BA 8187 WN    Cattle NTF        Sales          013000000002PT NUSANTARA TROPICAL FARM         
F270201320  213249    NN1702FS  842 000016134317    000000201707080000051236100373964000000487UPTD RPH KOTA SOLOK                1000000018dDWARD RASYID, S.E.                CT-SEFS-A01 Escass Steer                  BA 8187 WN    Cattle NTF        Sales          013000000002PT NUSANTARA TROPICAL FARM         
F270201452  213380    NN1702FS  842 000011048223    000000201707080000048736100373964000000487UPTD RPH KOTA SOLOK                1000000018dDWARD RASYID, S.E.                CT-SEFS-A01 Escass Steer                  BA 8187 WN    Cattle NTF        Sales          013000000002PT NUSANTARA TROPICAL FARM         
F270203451  213911    NN1702FS  882 123473223766    000000201707080000053236100373964000000487UPTD RPH KOTA SOLOK                1000000018dDWARD RASYID, S.E.                CT-SEFS-A01 Escass Steer                  BA 8187 WN    Cattle NTF        Sales          013000000002PT NUSANTARA TROPICAL FARM         
F170203475  213935    NN1702FS  982 123511187338    000000201707080000046236100373964000000487UPTD RPH KOTA SOLOK                1000000018dDWARD RASYID, S.E.                CT-SEFS-A01 Escass Steer                  BA 8187 WN    Cattle NTF        Sales          013000000002PT NUSANTARA TROPICAL FARM         
F170303937  312963    N1703FS   942 000016233526    000000201707080000039136100373964000000487UPTD RPH KOTA SOLOK                1000000018dDWARD RASYID, S.E.                CT-SEFS-A01 Escass Steer                  BA 8187 WN    Cattle NTF        Sales          011000000059AUSTRALIAN RURAL EXPORTS           
