F170200717  203056    NN1702FS  982 091015707801    000000201707060000050436100373954000000487UPTD RPH KOTA SOLOK                1000000019EDWARD RASYID, S.E.                CT-SEFS-A01 Escass Steer                  BA 8187 WN    Cattle NTF        Sales          013000000002PT NUSANTARA TROPICAL FARM         
F170200887  203123    NN1702FS  942 000025387868    000000201707060000058836100373954000000487UPTD RPH KOTA SOLOK                1000000019EDWARD RASYID, S.E.                CT-SEFS-A01 Escass Steer                  BA 8187 WN    Cattle NTF        Sales          013000000002PT NUSANTARA TROPICAL FARM         
F170200892  203129    NN1702FS  982 000042587119    000000201707060000047636100373954000000487UPTD RPH KOTA SOLOK                1000000019EDWARD RASYID, S.E.                CT-SEFS-A01 Escass Steer                  BA 8187 WN    Cattle NTF        Sales          013000000002PT NUSANTARA TROPICAL FARM         
F170200920  203157    NN1702FS  942 000024021017    000000201707060000050436100373954000000487UPTD RPH KOTA SOLOK                1000000019EDWARD RASYID, S.E.                CT-SEFS-A01 Escass Steer                  BA 8187 WN    Cattle NTF        Sales          013000000002PT NUSANTARA TROPICAL FARM         
F170201299  203228    NN1702FS  900 116001084409    000000201707060000050236100373954000000487UPTD RPH KOTA SOLOK                1000000019EDWARD RASYID, S.E.                CT-SEFS-A01 Escass Steer                  BA 8187 WN    Cattle NTF        Sales          013000000002PT NUSANTARA TROPICAL FARM         
F170201302  203231    NN1702FS  982 123473223871    000000201707060000048536100373954000000487UPTD RPH KOTA SOLOK                1000000019EDWARD RASYID, S.E.                CT-SEFS-A01 Escass Steer                  BA 8187 WN    Cattle NTF        Sales          013000000002PT NUSANTARA TROPICAL FARM         
F170201320  203249    NN1702FS  942 000016134317    000000201707060000051236100373954000000487UPTD RPH KOTA SOLOK                1000000019EDWARD RASYID, S.E.                CT-SEFS-A01 Escass Steer                  BA 8187 WN    Cattle NTF        Sales          013000000002PT NUSANTARA TROPICAL FARM         
F170201452  203380    NN1702FS  942 000011048223    000000201707060000048736100373954000000487UPTD RPH KOTA SOLOK                1000000019EDWARD RASYID, S.E.                CT-SEFS-A01 Escass Steer                  BA 8187 WN    Cattle NTF        Sales          013000000002PT NUSANTARA TROPICAL FARM         
F170203451  203911    NN1702FS  982 123473223766    000000201707060000053236100373954000000487UPTD RPH KOTA SOLOK                1000000019EDWARD RASYID, S.E.                CT-SEFS-A01 Escass Steer                  BA 8187 WN    Cattle NTF        Sales          013000000002PT NUSANTARA TROPICAL FARM         
F170200757  203096    NN1702FS  942 000019772970    000000201707060000050036100373924000000487UPTD RPH KOTA SOLOK                1000000019EDWARD RASYID, S.E.                CT-SEFS-A01 Escass Steer                  BE 9988 HE    Cattle NTF        Sales          013000000002PT NUSANTARA TROPICAL FARM         
F170201287  203216    NN1702FS  982 000113961344    000000201707060000053436100373924000000487UPTD RPH KOTA SOLOK                1000000019EDWARD RASYID, S.E.                CT-SEFS-A01 Escass Steer                  BE 9988 HE    Cattle NTF        Sales          013000000002PT NUSANTARA TROPICAL FARM         
F170201355  203284    NN1702FS  942 000025387911    000000201707060000048436100373924000000487UPTD RPH KOTA SOLOK                1000000019EDWARD RASYID, S.E.                CT-SEFS-A01 Escass Steer                  BE 9988 HE    Cattle NTF        Sales          013000000002PT NUSANTARA TROPICAL FARM         
F170201441  203369    NN1702FS  982 123473223596    000000201707060000054236100373924000000487UPTD RPH KOTA SOLOK                1000000019EDWARD RASYID, S.E.                CT-SEFS-A01 Escass Steer                  BE 9988 HE    Cattle NTF        Sales          013000000002PT NUSANTARA TROPICAL FARM         
F170201810  203494    NN1702FS  900 036000167326    000000201707060000054436100373924000000487UPTD RPH KOTA SOLOK                1000000019EDWARD RASYID, S.E.                CT-SEFS-A01 Escass Steer                  BE 9988 HE    Cattle NTF        Sales          013000000002PT NUSANTARA TROPICAL FARM         
F170203267  203752    NN1702FS  964 001008364658    000000201707060000049736100373924000000487UPTD RPH KOTA SOLOK                1000000019EDWARD RASYID, S.E.                CT-SEFS-A01 Escass Steer                  BE 9988 HE    Cattle NTF        Sales          013000000002PT NUSANTARA TROPICAL FARM         
F170203405  203865    NN1702FS  982 123473223528    000000201707060000049036100373924000000487UPTD RPH KOTA SOLOK                1000000019EDWARD RASYID, S.E.                CT-SEFS-A01 Escass Steer                  BE 9988 HE    Cattle NTF        Sales          013000000002PT NUSANTARA TROPICAL FARM         
F170203414  203874    NN1702FS  982 125003930032    000000201707060000050436100373924000000487UPTD RPH KOTA SOLOK                1000000019EDWARD RASYID, S.E.                CT-SEFS-A01 Escass Steer                  BE 9988 HE    Cattle NTF        Sales          013000000002PT NUSANTARA TROPICAL FARM         
F170203509  203969    NN1702FS  942 000024020973    000000201707060000045736100373924000000487UPTD RPH KOTA SOLOK                1000000019EDWARD RASYID, S.E.                CT-SEFS-A01 Escass Steer                  BE 9988 HE    Cattle NTF        Sales          013000000002PT NUSANTARA TROPICAL FARM         
F170203524  203984    NN1702FS  982 123473223964    000000201707060000048936100373924000000487UPTD RPH KOTA SOLOK                1000000019EDWARD RASYID, S.E.                CT-SEFS-A01 Escass Steer                  BE 9988 HE    Cattle NTF        Sales          013000000002PT NUSANTARA TROPICAL FARM         
F170301426  302031    N1703FS   942 000019597961    000000201707060000042236100373924000000487UPTD RPH KOTA SOLOK                1000000019EDWARD RASYID, S.E.                CT-SEFS-A01 Escass Steer                  BE 9988 HE    Cattle NTF        Sales          011000000059AUSTRALIAN RURAL EXPORTS           
