F170200717  4000000487UPTD RPH KOTA SOLOK                20200731170500000245000000000020200728141800
F170200887  4000000487UPTD RPH KOTA SOLOK                20200731170600000263000000000020200728141800
F170200892  4000000487UPTD RPH KOTA SOLOK                20200731170700000250000000000020200728141800
F170200717  4000000487UPTD RPH KOTA SOLOK                20200731170500000245000000000020200728085600
F170200887  4000000487UPTD RPH KOTA SOLOK                20200731170600000263000000000020200728085600
F170200892  4000000487UPTD RPH KOTA SOLOK                20200731170700000250000000000020200728085600
F170200717  4000000487UPTD RPH KOTA SOLOK                20200731170500000245000000000020200729151900
F170200887  4000000487UPTD RPH KOTA SOLOK                20200731170600000250000000000020200729151900
F170200892  4000000487UPTD RPH KOTA SOLOK                20200731170700000263000000000020200729151900
