F170200717  4000000487UPTD RPH KOTA SOLOK                20200805170500000263000000000020200803085000
F170200887  4000000487UPTD RPH KOTA SOLOK                20200805170600000250000000000020200803085000
F170200892  4000000487UPTD RPH KOTA SOLOK                20200805170700000245000000000020200803085000
F170200717  4000000487UPTD RPH KOTA SOLOK                20200805170500000245000000000020200803093300
F170200887  4000000487UPTD RPH KOTA SOLOK                20200805170600000250000000000020200803093300
F170200892  4000000487UPTD RPH KOTA SOLOK                20200805170700000263000000000020200803093300
