F170200717  4000000487UPTD RPH KOTA SOLOK                20200731170500000245000000000020200730141800
F170200887  4000000487UPTD RPH KOTA SOLOK                20200731170600000144000000000020200730141800
F170200892  4000000487UPTD RPH KOTA SOLOK                20200731170700000263000000000020200730141800
