F200402280  4000001400RPH Kebo Ireng                     20200822170500000245000000000020200822102800
F200402826  4000001400RPH Kebo Ireng                     20200822170600000263000000000020200822102800
F200502486  4000001400RPH Kebo Ireng                     20200822170700000250000000000020200822102800
