F200503281  4000000300RPH Cibinong                       20200812170500000245000000000020200808102200
F200503284  4000000300RPH Cibinong                       20200812170600000263000000000020200808102200
F200503324  4000000300RPH Cibinong                       20200812170700000200000000000020200808102200
F200301389  4000000300RPH Cibinong                       20200812170500000263000000000020200811104100
F200311961  4000000300RPH Cibinong                       20200812170600000250000000000020200811104100
F200406019  4000000300RPH Cibinong                       20200812170700000200000000000020200811104100
F200503281  4000000300RPH Cibinong                       20200812170500000200000000000020200809105800
F200503284  4000000300RPH Cibinong                       20200812170600000250000000000020200809105800
F200503324  4000000300RPH Cibinong                       20200812170700000144000000000020200809105800
F200503281  4000000300RPH Cibinong                       20200812170500000200000000000020200810113100
F200503284  4000000300RPH Cibinong                       20200812170600000245000000000020200810113100
F200503324  4000000300RPH Cibinong                       20200812170700000250000000000020200810113100
F200503281  4000000300RPH Cibinong                       20200812170500000200000000000020200810113100
F200503284  4000000300RPH Cibinong                       20200812170600000250000000000020200810113100
F200503324  4000000300RPH Cibinong                       20200812170700000263000000000020200810113100
