F200503281  4000000300RPH Cibinong                       20200812170500000200000000000020200810113100
F200503284  4000000300RPH Cibinong                       20200812170600000250000000000020200810113100
F200503324  4000000300RPH Cibinong                       20200812170700000263000000000020200810113100
F200503281  4000000300RPH Cibinong                       20200812170500000000000000000020200810095000
F200503284  4000000300RPH Cibinong                       20200812170600000000000000000020200810095000
F200503324  4000000300RPH Cibinong                       20200812170700000000000000000020200810095000
F200503366  4000000300RPH Cibinong                       20200812095600000000000000000020200810095000
