F200503316  4000000300RPH Cibinong                       20200812170500000263000000000020200809145400
F200503324  4000000300RPH Cibinong                       20200812170600000245000000000020200809145400
F200503360  4000000300RPH Cibinong                       20200812170700000200000000000020200809145400
