F270301426  4000000487UPTD RPH KOTA SOLOK                20200801170500000200000000000020200731103200
F370301426  4000000487UPTD RPH KOTA SOLOK                20200801170600000263000000000020200731103200
F270301426  4000000487UPTD RPH KOTA SOLOK                20200801170500000200000000000020200731160300
F370301426  4000000487UPTD RPH KOTA SOLOK                20200801170600000144000000000020200731160300
