F170201320  4000000487UPTD RPH KOTA SOLOK                202007260856000002450000000000
F170201441  4000000487UPTD RPH KOTA SOLOK                202007240900000001440000000000
F170203405  4000000487UPTD RPH KOTA SOLOK                202007250955000002000000000000
